:020000040800F2
:1000000008040020450100088906000827060008AA
:10001000850600088D0100089D080008000000000A
:100020000000000000000000000000004D07000874
:1000300091010008000000002907000839080008A5
:100040005F0100085F0100085F0100085F01000810
:100050005F0100085F01000895010008AD0100087C
:10006000C5010008E1010008FD0100085F0100086A
:100070005F0100085F0100085F0100085F010008E0
:100080005F0100085F0100085F0100085F010008D0
:100090005F0100085F0100085F0100081902000805
:1000A0005F0100085F0100085F0100085F010008B0
:1000B0005F0100085F0100085F0100085F010008A0
:1000C0005F0100085F0100085F0100085F01000890
:1000D0005F0100085F0100085F0100085F01000880
:1000E0005F0100085F0100085F0100085F01000870
:1000F0005F0100085F0100085F0100085F01000860
:100100005F0100085F0100085F0100085F0100084F
:100110005F0100085F0100085F0100085F0100083F
:100120005F0100085F0100085F0100085F0100082F
:10013000DFF80CD000F018F800480047790A0008F2
:10014000080400200648804706480047FEE7FEE70F
:10015000FEE7FEE7FEE7FEE7FEE7FEE7FEE7FEE777
:100160003D08000831010008064C074D06E0E06834
:1001700040F0010394E8070098471034AC42F6D3EE
:10018000FFF7DAFF9C0A0008BC0A000800BFFEE780
:100190007047000010B50A2000F091FB01200249D1
:1001A000087000F02DF910BD0000002010B50A20E5
:1001B00000F085FB02200249087000F021F910BD13
:1001C0000000002010B50A2000F079FB032003494D
:1001D0000870042000F014F910BD00000000002099
:1001E00010B50A2000F06BFB0420034908700820BA
:1001F00000F006F910BD00000000002010B50A2034
:1002000000F05DFB052003490870102000F0F8F8AD
:1002100010BD00000000002010B5202000F0F6F80E
:1002200068B10A2000F04BFB0620214908702148E4
:100230000068401C1F490860202000F0E1F84020C1
:1002400000F0E4F868B10A2000F039FB07201849F3
:10025000087018480068401C16490860402000F0EB
:10026000CFF8802000F0D2F868B10A2000F027FB18
:1002700008200F4908700F480068401C0D490860AD
:10028000802000F0BDF84FF4807000F0BFF870B12E
:100290000A2000F014FB0920054908700548006891
:1002A000401C044908604FF4807000F0A9F810BDAC
:1002B00000000020040000201FB50121042000F0F0
:1002C00035FA40F2FF10ADF8000048208DF8030029
:1002D00069464A4800F018F90121084600F026FA5C
:1002E0000021084600F0F0F80121002000F0ECF8B1
:1002F0000221002000F0E8F80321002000F0E4F8DB
:100300000421002000F0E0F80521002000F0DCF8D6
:100310000621002000F0D8F80721002000F0D4F8D2
:100320000821002000F0D0F840F2FF1002900120D8
:100330008DF80E0000208DF80C000C208DF80D00BB
:1003400002A800F077F817208DF8040002208DF83D
:10035000050000208DF8060001208DF8070001A897
:1003600000F094F906208DF8040002208DF80500B5
:1003700000208DF8060001208DF8070001A800F08C
:1003800085F907208DF8040002208DF80500002073
:100390008DF8060001208DF8070001A800F076F91D
:1003A00008208DF8040002208DF8050000208DF84B
:1003B000060001208DF8070001A800F067F9092068
:1003C0008DF8040002208DF8050000208DF806004D
:1003D00001208DF8070001A800F058F90A208DF8D7
:1003E000040002208DF8050000208DF80600012091
:1003F0008DF8070001A800F049F91FBD0008014071
:1004000001490860704700001404014001460020C3
:100410000022074B1B6803EA0102054B14331B68DB
:100420000B4013B10AB1012000E00020704700002A
:1004300000040140002123498279002A3AD00A466B
:10044000126803689A430B461A600A1D1268036813
:100450009A430B1D1A60027911440A6803681A4313
:100460000A60184A0832126803689A43154B083329
:100470001A601A1D126803689A43124B0C331A60F3
:100480004279102A0ED11A1F126803681A430D4BC5
:1004900008331A601A1D126803681A43094B0C339B
:1004A0001A600DE00749427911440A6803681A434B
:1004B0000A6005E0027911440A6803689A430A60F9
:1004C000704700000004014030B500228B071C0F6C
:1004D0000F2303FA04F20B4B8C1053F82430934390
:1004E000084C8D1044F8253023468C1053F82430E6
:1004F0008C07240F00FA04F42343024C8D1044F8B7
:10050000253030BD080001402DE9F04102460025AC
:100510000026002000230024002791F803C00CF0DF
:100520000F0591F803C00CF0100CBCF1000F03D0C4
:1005300091F802C04CEA050591F800C0BCF1000F2B
:1005400031D0146800202BE04FF0010C0CFA00F3BE
:10055000B1F800C00CEA03069E4220D183004FF0A0
:100560000F0C0CFA03F7BC4305FA03FC4CEA040435
:1005700091F803C0BCF1280F06D14FF0010C0CFA22
:1005800000FCC2F814C00AE091F803C0BCF1480FA7
:1005900005D14FF0010C0CFA00FCC2F810C0401C51
:1005A0000828D1D31460B1F800C0BCF1FF0F34DDCE
:1005B000546800202EE000F1080C4FF0010808FA02
:1005C0000CF3B1F800C00CEA03069E4221D183006F
:1005D0004FF00F0C0CFA03F7BC4305FA03FC4CEA8E
:1005E000040491F803C0BCF1280F05D100F1080CF8
:1005F00008FA0CF8C2F8148091F803C0BCF1480F57
:1006000007D100F1080C4FF0010808FA0CF8C2F805
:100610001080401C0828CED35460BDE8F0814161B1
:1006200070470161704700BFFEE7000008B5012177
:10063000102000F07BF84FF40050ADF800000320CC
:100640008DF8020010208DF8030069460148FFF77D
:100650005BFF08BD0010014010B54FF40051084881
:10066000FFF7DDFF4FF47A7000F029F94FF40051E5
:100670000348FFF7D6FF4FF47A7000F020F910BD61
:100680000010014000BFFEE77047000070B5002178
:1006900000230F22C47804B3154C246804F4E064EA
:1006A000C4F5E064210AC1F10403CA40447804FAA5
:1006B00003F184781440214309010E4C0678A155BA
:1006C000047804F01F050124AC4005786D11AD00DD
:1006D00005F1E025C5F8004109E0047804F01F05A4
:1006E0000124AC40044D0678761145F8264070BDD3
:1006F0000CED00E000E400E080E100E008B501213D
:10070000082000F013F84FF47070ADF800000320DB
:100710008DF8020010208DF8030069460148FFF7AC
:10072000F3FE08BD000C01407047000029B1064AE5
:1007300092690243044B9A6104E0034A926982433E
:10074000014B9A617047000000100240704710B5DD
:1007500000F002F810BD00000CB5002001900090E0
:100760003348006840F480303149086000BF3048A9
:10077000006800F4003000900198401C019000983F
:1007800018B90198B0F5A06FF1D12948006800F4BC
:10079000003010B10120009001E00020009000988E
:1007A000012843D12348006840F010002149086027
:1007B0000846006820F0030008600846006840F022
:1007C000020008601A4840681949486008464068B5
:1007D00048600846406840F48060486008464068C9
:1007E00020F47C1048600846406840F4E8104860F7
:1007F0000846006840F08070086000BF0C48006840
:1008000000F000700028F9D00948406820F003008B
:10081000074948600846406840F00200486000BF51
:100820000348406800F00C000828F9D10CBD000016
:1008300000100240002002407047000010B513482D
:10084000006840F0010011490860084640681049FE
:1008500008400E494860084600680E4908400B49A8
:1008600008600846006820F4802008600846406858
:1008700020F4FE0048604FF41F008860FFF767FF18
:100880004FF000600449086010BD000000100240F5
:100890000000FFF8FFFFF6FE08ED00E000BFFEE7F6
:1008A00002E008C8121F08C1002AFAD17047704739
:1008B000002001E001C1121F002AFBD1704706E0B1
:1008C00041F6E84100E0491E0029FCD1401E002805
:1008D000F6D1704710B5664800780A2878D2DFE86C
:1008E00000F005182B3E5164788B9EB14021614881
:1008F000FFF795FE80215F48FFF791FE4FF480716E
:100900005C48FFF78CFE4FF400715A48FFF787FEF2
:10091000ACE040215748FFF784FE80215548FFF79F
:100920007EFE4FF480715348FFF779FE4FF400715B
:100930005048FFF774FE99E040214E48FFF76FFEE4
:1009400080214C48FFF76DFE4FF480714948FFF756
:1009500066FE4FF400714748FFF761FE86E04021D4
:100960004448FFF75EFE80214248FFF75AFE4FF4ED
:1009700080714048FFF753FE4FF400713D48FFF788
:100980004EFE73E040213B48FFF749FE8021394885
:10099000FFF745FE4FF480713648FFF742FE4FF4F3
:1009A00000713448FFF73BFE60E040213148FFF71B
:1009B00038FE80212F48FFF732FE4FF480712D481A
:1009C000FFF72FFE4FF400712A48FFF728FE4DE095
:1009D0004BE040212748FFF722FE80212548FFF702
:1009E00020FE4FF480712348FFF71BFE4FF4007187
:1009F0002048FFF714FE39E040211E48FFF711FEA2
:100A000080211C48FFF70DFE4FF480711948FFF755
:100A100008FE4FF400711748FFF701FE26E0402161
:100A20001448FFF7FCFD80211248FFF7F8FD4FF452
:100A300080711048FFF7F3FD4FF400710D48FFF788
:100A4000F0FD13E040210B48FFF7EBFD8021094842
:100A5000FFF7E5FD4FF480710648FFF7E0FD4FF426
:100A600000710448FFF7DDFD00E000BF00BF10BDCE
:100A700000000020000C0140FFF740FEFFF7D6FD0C
:100A8000FFF71AFC00200449087003E0FFF7E4FDBB
:100A9000FFF720FFFAE7000000000020BC0A000872
:100AA0000000002008000000A0080008C40A000898
:100AB0000800002000040000B0080008000000004A
:040AC0000000000032
:0400000508000131BD
:00000001FF
